:100000000C946A000C9492000C9492000C94920050
:100010000C9492000C9492000C9492000C94920018
:100020000C9492000C9492000C9492000C94920008
:100030000C9492000C9492000C9492000C949200F8
:100040000C9475040C9492000C942C030C940603ED
:100050000C9492000C9492000C9492000C949200D8
:100060000C94D9050C94920069126C126F127212E2
:10007000751278127B120000000023002600290070
:10008000040404040404040402020202020203033E
:100090000303030301020408102040800102040846
:1000A0001020010204081020000000002400270096
:1000B0002A0000000000250028002B000000000896
:1000C000000201000003040700000000000000001F
:1000D000C519B51911241FBECFEFD8E0DEBFCDBFC3
:1000E00014E0A0E0B1E0ECE1F3E402C005900D9271
:1000F000A835B107D9F726E0A8E5B4E001C01D9204
:10010000A738B207E1F710E0C9E6D0E004C02197B4
:10011000FE010E94C11CC836D107C9F70E94560BC8
:100120000C9481210C940000FC01538D448D252FEB
:1001300030E0842F90E0821B930B541710F0CF9681
:10014000089501970895FC01918D828D981761F0B3
:10015000828DDF01A80FB11D5D968C91928D9F5FFE
:100160009F73928F90E008958FEF9FEF0895FC01A9
:10017000918D828D981731F0828DE80FF11D858D5C
:1001800090E008958FEF9FEF0895FC01918D228DEF
:10019000892F90E0805C9F4F821B91098F73992774
:1001A00008958CE495E00E94C50021E0892B09F4B4
:1001B00020E0822F0895FC01848DDF01A80FB11D7E
:1001C000A35ABF4F2C91848D90E001968F7399278D
:1001D000848FA689B7892C93A089B1898C9180647A
:1001E0008C93938D848D981306C00288F389E02D3B
:1001F00080818F7D80830895EF92FF920F931F93EC
:10020000CF93DF93EC0181E0888F9B8D8C8D9813C9
:1002100005C0E889F989808185FD24C0F62E0B8D03
:1002200010E00F5F1F4F0F731127E02E8C8DE81227
:100230000CC00FB607FCFACFE889F989808185FFE9
:10024000F5CFCE010E94DB00F1CF8B8DFE01E80FD0
:10025000F11DE35AFF4FF0820B8FEA89FB89808101
:10026000806207C0EE89FF896083E889F98980810F
:100270008064808381E090E0DF91CF911F910F91A6
:10028000FF90EF900895CF93DF93EC01888D882342
:10029000C9F0EA89FB89808185FD05C0A889B989F3
:1002A0008C9186FD0FC00FB607FCF5CF808185FFCE
:1002B000F2CFA889B9898C9185FFEDCFCE010E943C
:1002C000DB00E7CFDF91CF91089580E090E0892BAC
:1002D00029F00E94D10081110C9400000895833010
:1002E00081F028F4813099F08230A1F008958730B0
:1002F000A9F08830B9F08430D1F4809180008F7DEE
:1003000003C0809180008F7780938000089584B52A
:100310008F7702C084B58F7D84BD08958091B00031
:100320008F7703C08091B0008F7D8093B0000895D7
:1003300021E001C0220F6A95EAF7DC011C962C939C
:100340001C971A965C934E931997ED91FC91048437
:10035000F585E02D60E00994DC01ED91FC910684C7
:10036000F785E02D41E0099581E090E0089508953A
:10037000089585ED8093BC008091BC0084FDFCCF86
:100380001092270508954091D104262F30E0240FC4
:10039000311D21323105DCF4209127052430C9F4C8
:1003A000FC0180E090E0861758F43091D10421914F
:1003B000DC01A155BB4FA30FB11D2C930196F3CFC8
:1003C0008091D104680F6093D10480E0089581E0AA
:1003D000089582E00895089581E090E03091F70457
:1003E0002091F604321710F480E090E09195819509
:1003F000910908958091F7049091F604891730F4DB
:100400008F5F8093F70480E090E008958FEF9FEF77
:1004100008958091F60490E02091F704821B9109E1
:100420000895CF92DF92EF92FF920F931F93CF9395
:10043000DF937C01262F972F8A018091280588233E
:1004400091F0C62FD72F6E01C40ED51ECC15DD0539
:1004500071F06991D701ED91FC910190F081E02D4F
:10046000C7010995F3CF642F822F0E94C301C801F1
:10047000DF91CF911F910F91FF90EF90DF90CF9080
:100480000895CF93DF931F92CDB7DEB76983209194
:1004900028052223D1F020914B05203240F021E0A5
:1004A00030E0FC013383228380E090E015C080912E
:1004B0002905E82FF0E0E65DFA4F998190838F5F80
:1004C0008093290580934B0505C061E0CE0101961C
:1004D0000E94C30181E090E00F90DF91CF910895D9
:1004E000089580E090E008950E94BE1EFC012381E3
:1004F0002223B9F09181909569236083828191E0F4
:100500009093280580934A051092290510924B0577
:1005100081E396E00E9441020E942609282F30E0E4
:1005200002C020E030E081E090E0232B11F080E079
:1005300090E00895EF92FF920F931F93CF938C0159
:10054000FC01759684E0C0E060FF02C09081C92B79
:100550006695815031968111F7CF413011F4F80141
:100560004489F8018585C82BC42B7801FEE0EF0E85
:10057000F11CF80162896C2BC7010E947602F80118
:10058000628960956C23C701CF911F910F91FF90F5
:10059000EF900C9476020F931F93CF93DF93062F67
:1005A0000F70423019F440E0602F10C0142F262F36
:1005B000EC0130E0B90184E0759567958A95E1F723
:1005C000CE010E949A02412F602FCE01DF91CF9180
:1005D0001F910F910C949A02FC0184858823A9F045
:1005E000218532852115310519F4611106C007C036
:1005F0002130310521F4611102C0858701C01586C3
:100600006585CF010E960C94760208951F920F9285
:100610000FB60F9211242F933F934F935F936F93D5
:100620007F938F939F93AF93BF93EF93FF938CE44C
:1006300095E00E94DB00FF91EF91BF91AF919F91F8
:100640008F917F916F915F914F913F912F910F907B
:100650000FBE0F901F9018951F920F920FB60F921A
:1006600011242F938F939F93EF93FF93E0915C0559
:10067000F0915D058081E0916205F091630582FD56
:1006800012C09081809165058F5F8F732091660500
:10069000821751F0E0916505F0E0E45BFA4F958F29
:1006A0008093650501C08081FF91EF919F918F91AB
:1006B0002F910F900FBE0F901F901895CF93DF933F
:1006C000282F30E0F901E454FF4F8491F901EC56F2
:1006D000FF4FD491F901E058FF4FC491CC2391F022
:1006E00081110E946F01EC2FF0E0EE0FFF1FEA581E
:1006F000FF4FA591B491EC91ED2381E090E021F4BE
:1007000080E002C080E090E0DF91CF9108951F93D8
:10071000CF93DF93282F30E0F901E454FF4F849109
:10072000F901EC56FF4FD491F901E058FF4FC49105
:10073000CC23C9F0162F81110E946F01EC2FF0E03D
:10074000EE0FFF1FEE54FF4FA591B4918FB7F894B1
:10075000111105C09C91ED2FE095E92302C0EC91A9
:10076000ED2BEC938FBFDF91CF911F910895CF9325
:10077000DF9390E0FC01EC56FF4F2491FC01E05820
:10078000FF4F8491882361F190E0880F991FFC014D
:10079000E855FF4FC591D491FC01EE54FF4FA59150
:1007A000B491611109C09FB7F89488812095822384
:1007B0008883EC912E230BC0623061F49FB7F894CC
:1007C0003881822F809583238883EC912E2B2C9364
:1007D0009FBF06C08FB7F894E8812E2B28838FBF68
:1007E000DF91CF9108958E3008F08E50877080642D
:1007F00080937C0080917A00806480937A0080915D
:100800007A0086FDFCCF809178002091790090E0FD
:10081000922B08953FB7F8948091FD049091FE04C7
:10082000A091FF04B091000526B5A89B05C02F3FFD
:1008300019F00196A11DB11D3FBFBA2FA92F982F06
:100840008827820F911DA11DB11DBC01CD0142E081
:10085000660F771F881F991F4A95D1F708958F92C9
:100860009F92AF92BF92CF92DF92EF92FF926B0175
:100870007C010E940A044B015C01C114D104E10413
:10088000F104F1F00E940A04DC01CB0188199909F6
:10089000AA09BB09883E9340A105B10570F321E088
:1008A000C21AD108E108F10888EE880E83E0981E8C
:1008B000A11CB11CC114D104E104F10419F7DDCF6E
:1008C000FF90EF90DF90CF90BF90AF909F908F9070
:1008D00008952FB7F8946091F9047091FA0480910B
:1008E000FB049091FC042FBF08951F920F920FB646
:1008F0000F9211242F933F938F939F93AF93BF93A6
:100900008091F9049091FA04A091FB04B091FC0449
:100910003091F80423E0230F2D3720F40196A11D18
:10092000B11D05C026E8230F0296A11DB11D20931D
:10093000F8048093F9049093FA04A093FB04B09315
:10094000FC048091FD049091FE04A091FF04B091FD
:1009500000050196A11DB11D8093FD049093FE0436
:10096000A093FF04B0930005BF91AF919F918F9129
:100970003F912F910F900FBE0F901F901895DC01A3
:10098000ED91FC910684F785E02D40E0099461E04B
:100990000E94BF048BE39FE10197F1F708950F9345
:1009A0001F93CF93DF93EC01423018F08C81886065
:1009B0008C834F836887222329F0413019F48C817E
:1009C00084608C8364E670E080E090E00E942F04F5
:1009D0006C8164FD31C0E881F9810684F785E02DE2
:1009E00042E063E0CE0109958BE496E40197F1F7CC
:1009F000E881F9810684F785E02D42E063E0CE01CD
:100A0000099503E512E0C8010197F1F7E881F98142
:100A10000684F785E02D42E063E0CE010995C80128
:100A20000197F1F7E881F9810684F785E02D42E02E
:100A300062E0CE01099517C06062CE010E94BF043A
:100A40008BE496E40197F1F76C816062CE010E941D
:100A5000BF0403E512E0C8010197F1F76C81606201
:100A6000CE010E94BF04C8010197F1F76C8160625A
:100A7000CE010E94BF048BEE90E00197F1F784E075
:100A80008D836CE0CE010E94BF04CE010E94C7049A
:100A900082E08E8366E0CE010E94BF04E881F98186
:100AA0000484F585E02D6FEFCE01DF91CF911F918A
:100AB0000F910994EF92FF920F931F93CF93DF93BF
:100AC000EC01062FF42EE22E8B85888B1092F70412
:100AD0001092F6041092290510924B0510922705EA
:100AE00011E0109326051092010561E082E10E9459
:100AF000870361E083E10E9487038091B9008E7FC4
:100B00008093B9008091B9008D7F8093B90088E40B
:100B10008093B80085E48093BC00888910932805F1
:100B200080934A051092290510924B050E942609D0
:100B300091E0811190E0998B992329F081E396E06F
:100B40000E94FA018E878989882339F01F861C82CA
:100B500060E0CE010E960E9476022E2D4F2D602F62
:100B6000CE01DF91CF911F910F91FF90EF900C94E8
:100B7000CF0460E00E9487038BE090E00197F1F7DB
:100B80000895CF93DF93EC01822F798368835B8391
:100B90004A832C833D8360E00E94870361E0888163
:100BA0000E9487038BE090E00197F1F7DF91CF91EE
:100BB00008951F920F920FB60F9211242F933F9317
:100BC0004F935F936F937F938F939F93AF93BF9355
:100BD000EF93FF938091B900887F803609F49CC021
:100BE00068F5883209F45BC090F4803109F454C090
:100BF00038F4882309F4F6C0883009F44DC0F6C0F3
:100C0000883109F44CC0803209F45DC0EFC08034F3
:100C100009F468C048F4803309F455C0883309F0FA
:100C2000E5C080932505D8C0803509F44FC08835CC
:100C300009F45DC0883409F0D9C0D6C0883909F4F8
:100C4000C7C0A8F4883709F467C038F4883609F4B7
:100C500063C0803709F460C0C9C0883809F4B8C0DF
:100C6000803909F45FC0803809F0C0C05BC0803BA8
:100C700009F486C038F4803A09F466C0883A09F469
:100C80007FC0B4C0803C09F4A7C0883C09F4A4C06C
:100C9000883B09F48AC0AAC08091020510C09091D7
:100CA000240580912305981770F5E091240581E0D3
:100CB0008E0F80932405F0E0ED5FFA4F80818093E2
:100CC000BB0085EC86C0809325058EC0E09124058D
:100CD00081E08E0F809324058091BB00F0E0ED5FF2
:100CE000FA4F808390912405809123056EC0E09196
:100CF000240581E08E0F809324058091BB00F0E0F5
:100D0000ED5FFA4F80838091260581116DC081E0EF
:100D10008093010584EA61C083E0809327051092E7
:100D2000F504CFCF8091F504803208F051C0E091F6
:100D3000F50481E08E0F8093F5048091BB00F0E014
:100D4000EB52FB4F8083BDCF85EC8093BC001092AB
:100D500027058091F504803230F4E091F504F0E04D
:100D6000EB52FB4F10826091F50470E0E091D304E8
:100D7000F091D40485ED94E009951092F50436C005
:100D800084E0809327051092D2041092D104E09160
:100D9000CF04F091D00409958091D104811105C050
:100DA00081E08093D1041092AF04E091D20481E0FD
:100DB0008E0F8093D204F0E0E155FB4F8081809349
:100DC000BB009091D2048091D104981708F479CF98
:100DD00085E88093BC000AC085EC8093BC0010922B
:100DE000270504C0109225050E94B901FF91EF91DB
:100DF000BF91AF919F918F917F916F915F914F9133
:100E00003F912F910F900FBE0F901F901895E0917A
:100E10006A06F0916B060190F081E02D682F8AE65A
:100E200096E00994CF92DF92EF92FF920F931F9377
:100E3000CF93DF936C017A018B01C0E0D0E0CE1537
:100E4000DF0589F0D8016D918D01D601ED91FC91FE
:100E50000190F081E02DC6010995892B11F47E01E6
:100E600002C02196ECCFC701DF91CF911F910F9166
:100E7000FF90EF90DF90CF9008951F93CF93DF9373
:100E800060E080913E060E94B703C0E0D0E010E031
:100E900080913E060E945E039C0133270C2E01C008
:100EA000220F0A94EAF7122B61E080913F060E941C
:100EB000870360E080913F060E9487032196C83037
:100EC000D10531F7812FDF91CF911F910895EF92D6
:100ED000FF920F931F93CF93DF93082F61E08091D0
:100EE0003E060E94B703F0903F06E0903E06C0E049
:100EF000D0E010E0B8010C2E02C0759567950A94F9
:100F0000E2F7617077278E2D0E94870361E08F2DB5
:100F10000E94870360E08F2D0E9487032196C830CE
:100F2000D10541F7DF91CF911F910F91FF90EF9085
:100F300008951F93CF93DF9300D000D000D0CDB79A
:100F4000DEB7EDE3F6E0228130E0418150E06081E0
:100F500070E0CE0101960E94C10581E80E946707FA
:100F60000E943D07182F89819A810E94B905812F1F
:100F700026960FB6F894DEBF0FBECDBFDF91CF919E
:100F80001F910895ECE4F5E0A089B18982E08C938B
:100F9000A485B5851C92A685B7858FEC8C93108EA1
:100FA000A489B58986E08C93A289B3898C918061EC
:100FB0008C93A289B3898C9188608C93A289B38920
:100FC0008C9180688C930288F389E02D80818F7DDD
:100FD000808308950F931F93CF93DF93CDB7DEB730
:100FE0002F970FB6F894DEBF0FBECDBF0F831887C3
:100FF00029873A874B875C877E870E949907182F3D
:10100000EDE3F6E0228130E0418150E0608170E064
:10101000CE0101960E94C1058EEB0E9467078F8169
:10102000412F40781AE0612F0E948D1C50E1859F6E
:1010300090011124892F822B842B0E9467078885B9
:10104000612F0E948D1C292F30E1839FC001112444
:10105000822B0E9467078985612F0E948D1C292F92
:1010600050E1859FC0011124822B0E9467078A8569
:10107000612F0E948D1C292F30E1839FC001112414
:10108000822B0E9467078B85612F0E948D1C292F60
:1010900050E1859FC0011124822B0E9467078C8537
:1010A000612F0E948D1C292F30E1839FC0011124E4
:1010B000822B0E9467078E85805D612F0E948D1CA8
:1010C000292F50E1859FC0011124822B0E946707C0
:1010D00080E00E94670789819A810E94B9052F9656
:1010E0000FB6F894DEBF0FBECDBFDF91CF911F9139
:1010F0000F910895CF93DF93CDB7DEB728970FB642
:10110000F894DEBF0FBECDBF1D8290E49E8324E124
:101110002F8324E5288719829A8390E19B8390E5A9
:101120009C8390917106691710F06FEF690F4091E1
:101130007206262F30E0FE01E20FF31F403121F44A
:10114000943011F4918101C09581682F690F606816
:101150008AE696E028960FB6F894DEBF0FBECDBFA4
:10116000DF91CF910C94BF040F931F93CF93DF9324
:1011700000D000D000D0CDB7DEB7182F062FEDE39A
:10118000F6E0228130E0418150E09081692F70E0EB
:10119000CE0101960E94C105812F880F80680E94B0
:1011A0006707802F0E94670789819A810E94B9058D
:1011B00026960FB6F894DEBF0FBECDBFDF91CF915C
:1011C0001F910F9108950E949907682F6F7780E013
:1011D0000C94B408CF92DF92EF92FF920F931F937B
:1011E000CF93DF931F92CDB7DEB7162F877028E01D
:1011F000829FC0011124682F60648AE696E079839B
:101200000E94BF0483E790E00197F1F7C12E798136
:10121000D72E8601085F1F4F8BE9E82EF12CF601CF
:1012200061916F018AE696E00E94AC01C7010197C7
:10123000F1F7C016D10699F70F90DF91CF911F916A
:101240000F91FF90EF90DF90CF90089520914B0584
:1012500090914A05213208F04AC0809127058111FA
:10126000FCCF32E03093270531E0309326053FEF85
:10127000309325051092240520932305AAE2B5E0BA
:1012800043E055E0FA013E2F341B321718F43D912C
:101290003193F9CF1092020520910205990F922BFC
:1012A0009093020590910105913061F4109201052F
:1012B000909102059093BB009091BC0093FDF8CFF4
:1012C00095EC01C095EE9093BC009091270592306B
:1012D000E1F3909125059F3F79F0809125058032BB
:1012E00041F080912505803331F084E005C081E034
:1012F00003C082E001C083E01092290510924B05E3
:10130000109228050895EF92FF920F931F93CF93A9
:10131000DF93EC01198218821B821A821D821C82C3
:1013200061157105A9F17B01FB0101900020E9F72E
:1013300031978F01061B170BB8016F5F7F4F80E05D
:1013400090E00E94F41D009759F0998388831B83D5
:101350000A832C813D81232B81F4FC0110820DC076
:1013600088819981009711F00E945C1D1982188272
:101370001D821C821B821A820BC01D830C83B70145
:10138000DF91CF911F910F91FF90EF900C94CC1EA5
:10139000DF91CF911F910F91FF90EF9008954F92A1
:1013A0005F926F927F92EF92FF920F931F93CF9372
:1013B000DF93CDB7DEB7A1970FB6F894DEBF0FBEAF
:1013C000CDBF7C01FA01CB0119A2223008F42AE03A
:1013D0008E010F5D1F4F422E512C612C712CBF01CD
:1013E000A30192010E948E1BF901CA01015011094B
:1013F0006A3014F4605D01C0695CD8016C93232BE2
:10140000242B252B61F7B801C7010E94410BA1963F
:101410000FB6F894DEBF0FBECDBFDF91CF911F9105
:101420000F91FF90EF907F906F905F904F90089595
:101430000F931F93CF93DF9300D000D0CDB7DEB7CB
:10144000AC01990F660B770B77FF23C08DE24983C0
:101450005A836B837C830E9407078C0149815A81E0
:101460006B817C8170956095509541955F4F6F4F72
:101470007F4F2AE08AE696E00E94CF09800F911FF5
:101480000F900F900F900F90DF91CF911F910F91C0
:1014900008952AE08AE696E00F900F900F900F9043
:1014A000DF91CF911F910F910C94CF09AC0160E0B7
:1014B00070E02AE08AE696E00C94CF098F929F9222
:1014C000AF92BF92CF92DF92EF92FF92CF93DF93D2
:1014D0006B017C019B01AC010E94881C882319F0E0
:1014E0006CE474E027C046015701E894B7F82FEF89
:1014F0003FEF4FE75FE7C501B4010E94881C8111EF
:101500000DC02FEF3FEF4FE75FE7C501B4010E9429
:101510006A1A18161CF460E574E00CC02FEF3FEF58
:101520004FE75FE4C701B6010E94831C181684F4DC
:1015300064E574E08AE696E0DF91CF91FF90EF904A
:10154000DF90CF90BF90AF909F908F900C94410B05
:101550002FEF3FEF4FE75FECC701B6010E946A1A19
:1015600087FDE6CF20E030E0A901C701B6010E9467
:101570006A1A87FF09C08DE20E940707EC01F7FA9B
:10158000F094F7F8F09402C0C0E0D0E02AE037ED24
:1015900043EA5BE3C701B6010E94E81B4B015C0113
:1015A0000E94541C6B017C010E946F1A9B01AC01CC
:1015B000C501B4010E94E71B4B015C012AE0B701A1
:1015C000A6018AE696E00E94CF09C80FD91F8EE2D5
:1015D0000E940707C80FD91F20E030E040E251E425
:1015E000C501B4010E94D01A4B015C010E94541C39
:1015F0006B01E12CF12C2AE0B701A6018AE696E006
:101600000E94CF09C80FD91FC701B6010E946F1AE7
:101610009B01AC01C501B4010E94E71B20E030E052
:1016200040E251E40E94D01A0E94541CAB0160E0D9
:1016300070E02AE08AE696E00E94CF098C0F9D1F99
:10164000DF91CF91FF90EF90DF90CF90BF90AF9060
:101650009F908F9008950F931F93CF93DF93EC018A
:101660000E94410B8C0165EF71E0CE010E94410B9D
:10167000800F911FDF91CF911F910F9108950C94CE
:10168000410B6115710579F0FB0101900020E9F72C
:101690003197AF01461B570BDC01ED91FC910280A5
:1016A000F381E02D099480E090E00895CF93DF93DB
:1016B000CDB7DEB7C355D1090FB6F894DEBF0FBE64
:1016C000CDBF789484B5826084BD84B5816084BDCB
:1016D00085B5826085BD85B5816085BD80916E00D0
:1016E000816080936E001092810080918100826001
:1016F000809381008091810081608093810080913E
:1017000080008160809380008091B100846080932C
:10171000B1008091B00081608093B00080917A0028
:10172000846080937A0080917A00826080937A004E
:1017300080917A00816080937A0080917A0080683D
:1017400080937A001092C10010922D0610922E06FE
:1017500010922F06109230061092EB051092EC05B5
:101760001092ED051092EE050E9469046B017C0158
:101770004B015C0128EB820E2BE0921EA11CB11CD8
:101780000E9469046C157D058E059F0528F086165C
:101790009706A806B906A0F78CE495E090932C066E
:1017A00080932B060E94C2070E9469046093EB0598
:1017B0007093EC058093ED059093EE0566EE71E075
:1017C00080912B0690912C060E943F0B0E94690489
:1017D0006B017C014B015C013AE0830E911CA11C62
:1017E000B11C0E9469046C157D058E059F0528F0CB
:1017F00086169706A806B906A0F781E08093FF0534
:101800000E94C20761E089E00E94B70361E08AE0BC
:101810000E94B70361E08BE00E94B70361E08CE0B7
:101820000E94B70361E08DE00E94B70362E084E0AC
:101830000E94B70362E082E00E94B70362E083E0A7
:101840000E94B70320E042E060E18AE696E00E9451
:101850005A0540E050E063E08AE696E00E94980175
:1018600061E08AE696E00E94EC0268E071E080E0C8
:101870000E94EA0860E071E081E00E94EA0860E00E
:1018800080E00E947A0861E08AE696E00E94AC015E
:1018900068EF71E08AE696E00E943F0B61E08AE61D
:1018A00096E00E94AC0161E081E00E947A0867E066
:1018B00072E08AE696E00E943F0B60ED77E080E000
:1018C00090E00E942F048AE696E00E94C70467EF2A
:1018D00071E08CE495E00E942B0B66E172E08CE4F1
:1018E00095E00E942B0B67EF71E08CE495E00E947D
:1018F0002B0B0E94E30802E511E0EAE9EE2EE1E09D
:10190000FE2ECC24C394D12CD7018C91B2E0EB0EE7
:10191000F11C61E00E948703F801D386C286045F50
:101920001F4FF1E00E381F0779F722242394312C42
:101930000E946904672B682B692B41F40E9469049B
:10194000623071058105910508F415C10E94690492
:101950006093AB047093AC048093AD049093AE0499
:101960000091A7041091A8042091A9043091AA0421
:10197000601771078207930740F46093A704709380
:10198000A8048093A9049093AA040091A70410913D
:10199000A8042091A9043091AA046B017C01C01A0B
:1019A000D10AE20AF30A970186010A3F11052105CF
:1019B000310508F4E0C06093A7047093A8048093F5
:1019C000A9049093AA0424EF31E040E050E0209372
:1019D000F7053093F8054093F9055093FA051092F6
:1019E000FB051092FC051092FD051092FE058091FA
:1019F000EF059091F005A091F105B091F20580936B
:101A0000F3059093F405A093F505B093F6050E94B5
:101A100069046093EF057093F0058093F10590934E
:101A2000F2050E9469046093EB057093EC058093C6
:101A3000ED059093EE050E9469046B017C0162E361
:101A400072E080912B0690912C060E943F0B2AE0B9
:101A500041E050E060E070E080912B0690912C0610
:101A60000E94CF0969E372E080912B0690912C06C9
:101A70000E943F0B2AE0B701A60180912B069091AE
:101A80002C060E94CF096BE372E080912B069091A7
:101A90002C060E943F0B8091EF059091F005A091DC
:101AA000F105B091F205B701A601481B590B6A0B6D
:101AB0007B0B2AE080912B0690912C060E94CF0987
:101AC0006BE372E080912B0690912C060E943F0BF5
:101AD0004091EF055091F0056091F1057091F2058C
:101AE0008091F3059091F405A091F505B091F6056C
:101AF000481B590B6A0B7B0B2AE080912B069091B7
:101B00002C060E94CF096DE372E080912B06909124
:101B10002C060E943F0B0E946904AB01BC012AE025
:101B200080912B0690912C060E94CF096FE372E002
:101B300080912B0690912C060E942B0B0E94690429
:101B40004B015C016B017C0135E0C30ED11CE11C33
:101B5000F11C0E946904681579058A059B0508F047
:101B60003DC70E9469046093EF057093F005809370
:101B7000F1059093F2050E94690420E63AEE40E0F8
:101B800050E00E948E1B29013A0164EAE62E61E0D2
:101B9000F62E43E954E02C965FAF4EAF2C976A01C6
:101BA00000E010E0809192019091930108171907CD
:101BB00034F5D7018C91B2E0EB0EF11C0E94F303D7
:101BC0006FEF73E0681B790B072E000C880B990BE5
:101BD0000E94711A20E030E048EC52E40E94D01AD2
:101BE00020E030E040E85AE30E94D01AF601619309
:101BF0007193819391936F010F5F1F4FD3CF85E155
:101C00000E94F303BC01990F880B990B0E94711A73
:101C100020E030E048EC52E40E94D01A20E030E0AE
:101C200040E85AE30E94D01A60938F0470939004A6
:101C3000809391049093920484E00E945E03892B28
:101C400009F03FC184E00E945E03892BD9F38AE644
:101C500096E00E94C70460E082E00E947A0864E88F
:101C600072E08AE696E00E943F0B6CED75E080E042
:101C700090E00E942F048AE696E00E94C70460E08C
:101C800080E00E947A0866E472E08AE696E00E94AC
:101C90003F0B61E080E00E947A0865E572E08AE629
:101CA00096E00E943F0B84E00E945E03892BD9F3EB
:101CB00060E080E00E947A0866E472E08AE696E0DE
:101CC0000E943F0B01E010E082E00E945E0301975A
:101CD00051F483E00E945E03019729F484E00E949E
:101CE0005E03019789F361E080E00E947A0865E570
:101CF00072E08AE696E00E943F0B82E00E945E035B
:101D0000892B09F472C683E00E945E03892B09F0D7
:101D1000A1C683E00E945E03892BD9F38AE696E090
:101D20000E94C7040230110509F0A9C68AE696E0B0
:101D30000E94C70460E080E00E947A086FE772E0CA
:101D40008AE696E00E943F0B68EE73E080E090E048
:101D50000E942F048AE696E00E94C70460E080E0BB
:101D60000E947A0860E972E08AE696E00E943F0BE2
:101D700061E080E00E947A088091440190914501E1
:101D800026E0289FF001299FF00D1124E05CF94F17
:101D900044815581608171818AE696E00E94120734
:101DA00060E087E00E94B4080E94E30816E082E049
:101DB0000E945E03019709F45BC682E00E945E0305
:101DC000892B09F0C3C68091580490915904892B3E
:101DD00009F0BCC68091440190914501019687307D
:101DE000910514F40C94F9161092450110924401D7
:101DF000E12CF12C8AE696E00E94C70460E080E0C6
:101E00000E947A088091580490915904009709F033
:101E1000ACC66AE972E08AE696E00E943F0B61E098
:101E200080E00E947A088091440190914501189FBA
:101E3000F001199FF00D1124E05CF94F44815581A8
:101E4000608171818AE696E00E94120782E00E941A
:101E50005E03892BD9F383E00E945E03892BB1F3E3
:101E600021E0E216F10409F0A2CF809144019091A3
:101E70004501009709F017C70091500110914E01DC
:101E800020914C01309146014091480180914A01D6
:101E900090914B01782F888799874D833C832B83C2
:101EA0001A8309835E2DFF82EE826F81892F0E9443
:101EB000EA078AE696E00E94C70430928F012092DA
:101EC0008E0182E00E945E03892B51F482E00E9421
:101ED0005E03892BD9F361E08AE696E00E94EC026A
:101EE00083E00E945E03892B51F483E00E945E032D
:101EF000892BD9F360E08AE696E00E94EC0280919B
:101F00009001909191014091920150919301181686
:101F1000190694F5481759077CF160E082E00E94A9
:101F20007A0862E973E08AE696E00E943F0B61E07E
:101F300081E00E947A0860E373E08AE696E00E94FE
:101F40003F0B80919001909191010E94180A67E0E7
:101F500073E08AE696E00E943F0BE0919001F091D9
:101F60009101EE0FFF1FEE0FFF1FE157FB4F608146
:101F700071818281938174C19A01220F331F4817A6
:101F800059070CF008C1281739070CF404C160E0A8
:101F900080E00E947A0860EA73E08AE696E00E9498
:101FA0003F0B80919001909191012091920130918D
:101FB0009301821B930B0E94180A6BE372E08AE67E
:101FC00096E00E943F0B61E080E00E947A088091D9
:101FD0009001909191012091920130919301821B87
:101FE000930B01971CE0189FF001199FF00D11242D
:101FF000EE5AFE4F808191810E94560A62ED72E096
:102000008AE696E00E943F0B8091900190919101A9
:102010002091920130919301821B930B0197189F9D
:10202000F001199FF00D1124EE5AFE4F8281938129
:102030000E94560A62ED72E08AE696E00E943F0B2B
:1020400080919001909191012091920130919301A2
:10205000821B930B0197189FF001199FF00D11241B
:10206000EE5AFE4F848195810E94560A60EB73E020
:102070008AE696E00E943F0B809190019091910139
:102080002091920130919301821B930B0197189F2D
:10209000F001199FF00D1124EE5AFE4F2681378171
:1020A0002A30310510F0C90124C07AE0E72EF12C66
:1020B000C901B7010E94991CA901481B590BCA010B
:1020C0000E94560A80919001909191012091920175
:1020D00030919301821B930B0197189FF001199F78
:1020E000F00D1124EE5AFE4F86819781B7010E94B0
:1020F000991C0E94560A6BE372E08AE696E00E9401
:102100003F0B80919001909191012091920130912B
:102110009301821B930B01976CE0F62EF89EF00161
:10212000F99EF00D1124EE5AFE4F208531852A309C
:10213000310510F0C90123C00AE010E0C901B8015F
:102140000E94991CD901A81BB90BCD010E94560A07
:102150008091900190919101209192013091930191
:10216000821B930B0197F89EF001F99EF00D11244C
:10217000EE5AFE4F80859185B8010E94991C0E94FD
:10218000560A80918E0190918F0101968E309105B3
:102190000CF4FCC06EC0A9014F5F5F4F8417950718
:1021A00009F043C060E082E00E947A0862EB73E0CD
:1021B0008AE696E00E943F0B68E18AE696E00E947C
:1021C000BF0461E080918E010E947A0860918604CC
:1021D0007091870480918804909189040E945E0A1E
:1021E00060E08AE696E00E94AC016DEC73E08AE65E
:1021F00096E00E943F0B609182047091830480916D
:102200008404909185040E945E0A66E473E08AE685
:1022100096E00E943F0B80918E0190918F01019674
:10222000893191050CF4B2C024C02E5F3F4F60E0AD
:102230008217930781F585E00E947A0861ED73E0CB
:102240008AE696E00E943F0B61E085E00E947A08F2
:1022500060918F0470919004809191049091920408
:102260000E945E0A66E473E08AE696E00E943F0BF5
:1022700088CF30928F0120928E018AE696E00E94EC
:10228000C7048091900190919101019690939101E2
:10229000809390018CC082E00E947A0868ED73E020
:1022A0008AE696E00E943F0B61E080E00E947A0897
:1022B00080914601909147010E94180A62ED72E0F8
:1022C0008AE696E00E943F0B809148019091490177
:1022D0000E94180A62ED72E08AE696E00E943F0BC7
:1022E00080914A0190914B010E94180A60EB73E0C3
:1022F0008AE696E00E943F0B20914C0130914D01FF
:102300002A30310514F0C90113C00AE010E0C901F8
:10231000B8010E94AD1CF901E81BF90BCF010E9426
:10232000180A80914C0190914D01B8010E94AD1C9A
:102330000E94180A6BE372E08AE696E00E943F0B67
:1023400020914E0130914F012A30310514F0C9011E
:1023500013C00AE010E0C901B8010E94AD1C690178
:10236000C81AD90AC6010E94180A80914E0190919C
:102370004F01B8010E94AD1C0E94180A80918E0185
:1023800090918F0101968B3091052CF490938F01E1
:1023900080938E010CC030928F0120928E0130927A
:1023A0009101209290018AE696E00E94C704209154
:1023B0003F0630E040913E0650E060913D0670E0FF
:1023C000CE0101964C010E94C1058FEB0E94670768
:1023D0000E943D07982F9695969596959E70292F69
:1023E000220F220F920F8F70980F23969FAF239783
:1023F0009BAB0E943D07982F92959F708F70AAE02B
:102400009A9F800D112425968FAF25978CAB0E9443
:102410003D0787FF08C085FB992790F91CE0919F35
:10242000102D112409C0182F1073169516951695A6
:10243000912F990F990F190F8F70180F1DAB0E94D4
:102440003D07982F92959F708F70082FBAE09B9F41
:10245000000D11240EAB0E943D07982F92959F709E
:102460008F70EAE09E9F800D112427968FAF2797EB
:102470008FAB0E943D07982F92959F708F70F82E1A
:10248000FAE09F9FF00C1124AF2CB12CB9AEA8AE8E
:102490000E943D07982F92959F708F702AE0929F1F
:1024A000800D112490E06C0130E3C31A38EFD30A99
:1024B000CAAEDBAE89819A810E94B9058F2D90E06A
:1024C000FC013197E730F105C8F4EC5CFF4F0C9448
:1024D000C11C64EE73E014C06BEE73E011C062EFD8
:1024E00073E00EC06AEF73E00BC064E074E008C0F4
:1024F0006DE074E005C064E174E002C06DE174E079
:10250000CE01CC960E94830923964FAD2397E42EEB
:10251000F12C25965FAD2597252F30E050E02796CA
:102520008FAD2797682F70E0A02FB0E02E96BFAF39
:10253000AEAF2E971F922396BFAD2397BF931F92E6
:102540002596EFAD2597EF931F921F93DF92CF92C1
:102550001F928F931F920F938DAD8F938CAD8F939E
:102560008BE294E09F938F931F9282E38F939F92CD
:102570008F922F962FAF2F9760963FAF60976196FF
:102580001FAF619762965FAF629763966FAF639775
:1025900064967FAF64970E94D31EB0924501A092CB
:1025A00044012E968EAD9FAD2E9790934701809358
:1025B000460163966FAD639764967FAD64977093A1
:1025C000490160934801D0924B01C0924A01619643
:1025D0004FAD619762965FAD629750934D01409306
:1025E0004C012F962FAD2F9760963FAD609730939B
:1025F0004F0120934E01F0925101E09250018CADB9
:102600009DAD0E945C1DECE9F0E01491E8E8F0E07B
:10261000E491F0E0EE0FFF1FEA58FF4FE590F490D1
:1026200010928A0410928B0410928C0410928D04E4
:1026300010928E0461E088E00E94B70360E088E0B9
:102640000E94870362E170E080E090E00E942F0426
:1026500061E088E00E9487038BE990E00197F1F741
:1026600060E088E00E94B7030FB6F894DEBF0FBEAB
:10267000CDBF20E931E0F7018081812321F4215091
:102680003109C9F75DC620E931E0D7018C9181237A
:1026900021F021503109C9F753C648E2D42E00E891
:1026A000C12C80E991E0F7012081212319F40197E1
:1026B000D1F746C60E940A044B015C0180E991E013
:1026C000D7012C91212319F00197D1F739C60E9427
:1026D0000A04DC01CB0188199909AA09BB09899769
:1026E000A105B10538F0EC2DF0E0EE57FB4F8085E9
:1026F000802B8087802F90E095958795009711F02B
:10270000082F02C0C39400E8DA94D110CACF61E068
:1027100088E00E94B70361E088E00E94870360912F
:102720008A0470E080E090E00E946F1A6093820457
:1027300070938304809384049093850460918C0447
:1027400070E080E090E00E946F1A609386047093BE
:10275000870480938804909389049AE5A92E94E0D5
:10276000B92E20E1C22E21E0D22E02E511E0EAE9E5
:10277000F1E02496FFAFEEAF249726961FAE1EAE73
:10278000269780919201909193012696EEACFFAC32
:102790002697E816F9060CF017C1D8011A96ED90A5
:1027A000FC901B97B1E0EB16F10439F4EDEFFFEF6D
:1027B000F0934301E093420106C023E030E0309300
:1027C0004301209342012C96EEADFFAD2C978191F1
:1027D0009191A191B1912C96FFAFEEAF2C972A96D3
:1027E0008CAF9DAFAEAFBFAF2A9780904201909063
:1027F0004301D6016D917C91680D791D80E090E0D8
:102800000E946F1A9B01AC012A966CAD7DAD8EAD16
:102810009FAD2A970E946A1A87FF8CC0F6016281D9
:102820007381680D791D80E090E00E946F1A9B0112
:10283000AC01609182047091830480918404909132
:1028400085040E946A1A87FF75C0D60114966D919F
:102850007C911597680D791D80E090E00E946F1AB9
:102860009B01AC0160918F04709190048091910460
:10287000909192040E946A1A87FF5CC0F5018481DE
:102880009581A681B781B301A201481B590B6A0B40
:102890007B0BD60116968D919C911797A0E0B0E026
:1028A000481759076A077B0708F444C0EA94EF28E1
:1028B00021F44082518262827382F501808191818C
:1028C000A281B381B301A201481B590B6A0B7B0B98
:1028D000D60118968D919C911997A0E0B0E08417CD
:1028E0009507A607B70770F060E02496EEADFFAD40
:1028F000249780810E948703D8011B961C921E9208
:102900001A9745C0F501448255826682778280E03D
:1029100090E0F801E80FF91FDC01AC5BBE4F1296A6
:102920002D913C9113973183208302968A30910533
:1029300081F703C0E114F10479F061E02496AEADB3
:10294000BFAD24978C910E948703EE24E394F12C71
:10295000F801F386E2861BC0D50114964D925D9274
:102960006D927C921797F801EE0DFF1DD701AC5BBD
:10297000BE4F12968D919C91139791838083B2E004
:10298000EB0EF11CEAE0EE16F10469F7D6CF2696BD
:102990002EAD3FAD26972F5F3F4F26963FAF2EAF10
:1029A000269724964EAD5FAD24974E5F5F4F2496D9
:1029B0005FAF4EAF2497045F1F4F58E0A50EB11CC8
:1029C0008AE0C80ED11CDDCE64EF71E080E090E0BB
:1029D0000E942F040E9465010C94980CC616D7061D
:1029E000E806F90608F0B5C8BCC882E00E945E039C
:1029F000892BD9F30F5F1F4F0430110514F001E04C
:102A000010E08AE696E00E94C70461E080E00E9440
:102A10007A0865E572E08AE696E00E943F0B60E086
:102A200080E00E947A080130110519F466E472E032
:102A30000CC00230110519F464E672E006C00330E0
:102A4000110509F041C96EE672E08AE696E00E943F
:102A50003F0B3AC984E00E945E03892B09F034C918
:102A600084E00E945E03892BD9F300E010E056C990
:102A700083E00E945E03019709F09FC998C9013065
:102A8000110589F58091920190919301892B09F4A8
:102A900010CA01E010E08AE696E00E94C70460E0F8
:102AA00080E00E947A086CEF72E08AE696E00E946D
:102AB0003F0BC8010E94180A61E080E00E947A087A
:102AC0006AE073E08AE696E00E943F0B82E00E9493
:102AD0005E03019709F05FC283E00E945E030197E5
:102AE00009F059C2F3CF0330110509F0E2C9109281
:102AF0009301109292018AE696E00E94C70460E07A
:102B000080E00E947A0864E873E08AE696E00E941A
:102B10003F0B80919201909193010E94180A61E00D
:102B200080E00E947A086AE073E08AE696E00E94FC
:102B30003F0B82E00E945E03019709F0BAC383E075
:102B40000E945E03019709F0B4C3F3CF82E00E94B4
:102B50005E03892B09F067C1209158043091590414
:102B60002130310509F05FC14AC19C012150310972
:102B70002330310508F047C0019731F468EA72E06C
:102B80008AE696E00E943F0B809158049091590488
:102B9000029731F465EB72E08AE696E00E943F0B03
:102BA0008091580490915904039731F464EC72E0D9
:102BB0008AE696E00E943F0B61E080E00E947A087E
:102BC0006EEC73E08AE696E00E943F0B809146012E
:102BD000909147010E94180A62ED72E08AE696E041
:102BE0000E943F0B80914801909149010E94180A70
:102BF00062ED72E08AE696E00E943F0B80914A0106
:102C000090914B014DC09C01245031092330310576
:102C100008F01CC9049731F464ED72E08AE696E08E
:102C20000E943F0B8091580490915904059731F40C
:102C300062EE72E08AE696E00E943F0B80915804B3
:102C400090915904069731F46FEE72E08AE696E0AF
:102C50000E943F0B61E080E00E947A086EEC73E016
:102C60008AE696E00E943F0B80914C0190914D01C5
:102C70000E94180A6BE372E08AE696E00E943F0B1E
:102C800080914E0190914F010E94180A6BE372E00F
:102C90008AE696E00E943F0B80915001909151018D
:102CA0000E94180AD3C881309105E1F400915001C7
:102CB00010914E0120914C01309146014091480104
:102CC00080914A0190914B01782F888799874D8395
:102CD0003C832B831A83098382E0582F8E831F82C3
:102CE00060E0E4C882309105C1F400915001109178
:102CF0004E0120914C013091460140914801809154
:102D00004A0190914B01782F888799874D833C83A6
:102D10002B831A83098383E0E0CF83309105C1F4CC
:102D20000091500110914E0120914C0130914601CB
:102D30004091480180914A0190914B01782F8887FA
:102D400099874D833C832B831A83098384E0C5CF05
:102D500084309105C1F40091500110914E012091F1
:102D60004C01309146014091480180914A01909177
:102D70004B01782F888799874D833C832B831A8357
:102D8000098385E0AACF85309105C1F400915001F7
:102D900010914E0120914C01309146014091480123
:102DA00080914A0190914B01782F888799874D83B4
:102DB0003C832B831A83098386E08FCF069709F023
:102DC00078C80091500110914E0120914C01309132
:102DD00046014091480180914A0190914B01782F22
:102DE000888799874D833C832B831A83098387E0E7
:102DF00074CF90934501809344010C94F80E809118
:102E000046019091470101968032910534F030934C
:102E10004701209346010C94F80E9093470180934C
:102E200046010C94F80E82E00E945E03892BC9F4DF
:102E30008091580490915904029799F48091480127
:102E400090914901019690934901809348010D9713
:102E500014F40C94F80E30924901209248010C941D
:102E6000F80E82E00E945E03892BF1F480915804F1
:102E7000909159040397C1F480914A0190914B01BC
:102E8000019690934B0180934A01893F974014F437
:102E90000C94F80E5FEDC52E57E0D52ED0924B0165
:102EA000C0924A010C94F80E82E00E945E03892BC6
:102EB000C9F48091580490915904049799F4809131
:102EC0004C0190914D01019690934D0180934C01DE
:102ED000489714F40C94F80E10924D0110924C0186
:102EE0000C94F80E82E00E945E03892BC9F4809155
:102EF000580490915904059799F480914E0190914E
:102F00004F01019690934F0180934E01CC9714F49A
:102F10000C94F80E10924F0110924E010C94F80E82
:102F200082E00E945E03892B31F4809158049091D5
:102F300059040697E9F083E00E945E03892B11F0A3
:102F40000C94F80E80915804909159040196909336
:102F5000590480935804079714F40C94F80E1092B7
:102F6000590410925804EE24E394F12C0C94FA0EB8
:102F7000809150019091510101969093510180935D
:102F80005001CC9714F40C94F80E10925101109249
:102F900050010C94F80E82E00E945E03892BD9F454
:102FA0000F5F1F4F809192019091930180179107BD
:102FB00014F401E010E060E080E00E947A086CEF19
:102FC00072E08AE696E00E943F0BC8010E94180A50
:102FD000E12CF12C0AC083E00E945E0331E020E086
:102FE000892B09F030E0E32EF22E82E00E945E038E
:102FF000892BD9F383E00E945E03892BB1F3EA9415
:10300000EF2809F048CD8AE696E00E94C704101622
:10301000110614F00C94590F60E080E00E947A08C9
:103020006AE173E08AE696E00E943F0B61E082E08D
:103030000E947A086AE273E08AE696E00E943F0BFB
:10304000C8010E94180A60ED77E080E090E00E94DD
:103050002F048AE696E00E94C70460E080E00E94A8
:103060007A0866E373E08AE696E00E943F0BC801A7
:103070000E94180A6BE372E08AE696E00E943F0B1A
:1030800061E080E00E947A08680141E0C41AD1083A
:103090008AE08C9D90018D9D300D1124C901805FC7
:1030A0009E4F5C01DC018D919C910E94560A66E462
:1030B00073E08AE696E00E943F0B85E08C9D7001EC
:1030C0008D9DF00C11244501B8E08B0E911CE6E0BB
:1030D000AE0EB11C82E00E945E03019729F483E0EA
:1030E0000E945E030197B1F382E00E945E03892B88
:1030F000F1F5E0915804F0915904E330F10569F4D9
:10310000D5018D919C91119705968937910518F4F9
:103110008D939C9329C0F50121C0E430F10579F429
:10312000D4018D919C91119701968F31910580F377
:10313000CC24C394D12CF401D182C08211C0EE0DF5
:10314000FF1DEE0FFF1FE05FFE4F8081918105960E
:103150008536910518F49183808306C01182108210
:103160008AE696E00E94C704C12CD12C17C083E0E8
:103170000E945E03892BC1F78091580490915904F5
:103180000196909359048093580405976CF310921C
:10319000590410925804CC24C394D12C8AE696E0AA
:1031A0000E94C70460E080E00E947A088091580481
:1031B00090915904009719F466E373E005C08130DB
:1031C000910541F568E473E08AE696E00E943F0BC2
:1031D000C8010E94180A6BE372E08AE696E00E943A
:1031E0003F0B61E080E00E947A08E0915804F09182
:1031F0005904EE0DFF1DEE0FFF1FE05FFE4F8081B3
:1032000091810E94560A66E473E08AE696E00E9485
:103210003F0B3FC08230910519F467E573E0D4CFCE
:103220008330910569F46FE573E08AE696E00E94C9
:103230003F0B61E080E00E947A0865EA73E00EC00F
:10324000049739F560E773E08AE696E00E943F0B49
:1032500061E080E00E947A086DE773E08AE696E01C
:103260000E943F0BC8010E94180A67E073E08AE6DB
:1032700096E00E943F0BE0915804F0915904EE0D46
:10328000FF1DEE0FFF1FE05FFE4F808191810E94C6
:10329000560A82E00E945E03892BD9F383E00E94E4
:1032A0005E03892BB1F3CA94CD2809F013CF0C9497
:1032B000590F82E00E945E03892B21F580919201D3
:1032C000909193010196863091052CF4909393018F
:1032D0008093920104C0109293011092920160E0D9
:1032E00080E00E947A0864E873E08AE696E00E9433
:1032F0003F0B80919201909193010E94180A00E087
:1033000010E00AC083E00E945E0331E020E0892BD8
:1033100009F030E0032F122F82E00E945E03892B18
:10332000D9F383E00E945E03892BB1F301301105CC
:1033300009F0FFCB8AE696E00E94C7040C94590F6F
:1033400080E090ECA9E7B4EC80938204909383042E
:10335000A0938404B093850480938604909387049B
:10336000A0938804B0938904F8C9CF93DF93CAE689
:10337000D6E02697888199810E945C1D86E0C03442
:10338000D807B9F7DF91CF910895ECE4F5E0138207
:10339000128288EE93E0A0E0B0E084839583A68358
:1033A000B78322EB31E03183208325EC30E0358791
:1033B000248724EC30E03787268720EC30E0318BFF
:1033C000208B21EC30E0338B228B22EC30E0358BEC
:1033D000248B26EC30E0378B268B118E128E138EC9
:1033E000148EE9EEF5E01682178210861186128699
:1033F00013861486158616861786108A118A128AF5
:10340000138A148A158AE1E3F6E013821282848318
:103410009583A683B78384EC91E091838083EAE669
:10342000F6E01382128286ED91E091838083108A08
:103430008FEF87871686118A8FE383871486158618
:103440001286118684E0828B82E0838B81E0848BFC
:1034500080E1858B80E2868B80E4878B80E8808F9B
:1034600064EE73E080E496E00E9483096BEE73E003
:1034700086E496E00E94830962EF73E08CE496E0B4
:103480000E9483096AEF73E082E596E00E94830957
:1034900064E074E088E596E00E9483096DE074E0E2
:1034A0008EE596E00E94830964E174E084E696E08C
:1034B0000E948309EDE3F6E085E0808386E0818366
:1034C00087E0828361E085E00E94B70361E087E0E6
:1034D0000C94B7030E94AC1A08F481E00895E894B4
:1034E00009C097FB3EF490958095709561957F4F4C
:1034F0008F4F9F4F9923A9F0F92F96E9BB279395FA
:10350000F695879577956795B795F111F8CFFAF409
:10351000BB0F11F460FF1BC06F5F7F4F8F4F9F4F3A
:1035200016C0882311F096E911C0772321F09EE898
:10353000872F762F05C0662371F096E8862F70E0FE
:1035400060E02AF09A95660F771F881FDAF7880FD8
:103550009695879597F90895990F0008550FAA0B2E
:10356000E0E8FEEF16161706E807F907C0F0121696
:103570001306E407F50798F0621B730B840B950B99
:1035800039F40A2661F0232B242B252B21F40895EE
:103590000A2609F4A140A6958FEF811D811D08958B
:1035A0000E94E31A0C94541B0E94461B38F00E94A0
:1035B0004D1B20F0952311F00C943D1B0C94431BE4
:1035C00011240C94881B0E94651B70F3959FC1F316
:1035D000950F50E0551F629FF001729FBB27F00DC1
:1035E000B11D639FAA27F00DB11DAA1F649F662716
:1035F000B00DA11D661F829F2227B00DA11D621F65
:10360000739FB00DA11D621F839FA00D611D221F1E
:10361000749F3327A00D611D231F849F600D211D02
:10362000822F762F6A2F11249F5750409AF0F1F085
:1036300088234AF0EE0FFF1FBB1F661F771F881FEE
:1036400091505040A9F79E3F510580F00C943D1BCE
:103650000C94881B5F3FE4F3983ED4F386957795EE
:103660006795B795F795E7959F5FC1F7FE2B880F94
:10367000911D9695879597F9089597F99F6780E82A
:1036800070E060E008959FEF80EC089500240A94B4
:103690001616170618060906089500240A9412162D
:1036A0001306140605060895092E0394000C11F460
:1036B000882352F0BB0F40F4BF2B11F460FF04C00D
:1036C0006F5F7F4F8F4F9F4F089557FD9058440F66
:1036D000551F59F05F3F71F04795880F97FB991F71
:1036E00061F09F3F79F0879508951216130614062E
:1036F000551FF2CF4695F1DF08C0161617061806BB
:10370000991FF1CF86957105610508940895E89495
:10371000BB2766277727CB0197F90895A1E21A2ED8
:10372000AA1BBB1BFD010DC0AA1FBB1FEE1FFF1F65
:10373000A217B307E407F50720F0A21BB30BE40BB5
:10374000F50B661F771F881F991F1A9469F76095FC
:103750007095809590959B01AC01BD01CF010895B6
:103760002F923F924F925F926F927F928F929F9291
:10377000AF92BF92CF92DF92EF92FF920F931F937F
:10378000CF93DF93CDB7DEB7CA1BDB0B0FB6F89430
:10379000DEBF0FBECDBF09942A88398848885F8470
:1037A0006E847D848C849B84AA84B984C884DF80E1
:1037B000EE80FD800C811B81AA81B981CE0FD11DC5
:1037C0000FB6F894DEBF0FBECDBFED01089550587F
:1037D000BB27AA270E94FF1B0C94541B0E94461B68
:1037E00038F00E944D1B20F039F49F3F19F426F465
:1037F0000C94431B0EF4E095E7FB0C943D1BE92F62
:103800000E94651B58F3BA17620773078407950770
:1038100020F079F4A6F50C94871B0EF4E0950B2E9E
:10382000BA2FA02D0B01B90190010C01CA01A00112
:103830001124FF27591B99F0593F50F4503E68F16D
:103840001A16F040A22F232F342F4427585FF3CFAE
:10385000469537952795A795F0405395C9F77EF47F
:103860001F16BA0B620B730B840BBAF09150A1F0C8
:10387000FF0FBB1F661F771F881FC2F70EC0BA0F4E
:10388000621F731F841F48F4879577956795B795D6
:10389000F7959E3F08F0B0CF9395880F08F09927D1
:1038A000EE0F9795879508950E946D1B88F09F579E
:1038B00098F0B92F9927B751B0F0E1F0660F771F54
:1038C000881F991F1AF0BA95C9F714C0B13091F04A
:1038D0000E94871BB1E008950C94871B672F782FF7
:1038E0008827B85F39F0B93FCCF38695779567950F
:1038F000B395D9F73EF490958095709561957F4F7B
:103900008F4F9F4F08950E94AC1A08F48FEF0895CF
:103910000E94AC1A880B990B0895991B79E004C09A
:10392000991F961708F0961B881F7A95C9F78095FE
:103930000895AA1BBB1B51E107C0AA1FBB1FA617F6
:10394000B70710F0A61BB70B881F991F5A95A9F748
:1039500080959095BC01CD01089597FB072E16F434
:10396000009407D077FD09D00E94991C07FC05D070
:103970003EF4909581959F4F0895709561957F4F86
:103980000895EE0FFF1F0590F491E02D0994CF9359
:10399000DF938230910510F482E090E0E09185069B
:1039A000F091860620E030E0C0E0D0E0309711F1E1
:1039B0004081518148175907C0F04817590761F4F1
:1039C00082819381209719F09B838A832BC09093E7
:1039D00086068093850626C02115310519F0421709
:1039E000530718F49A01BE01DF01EF010280F38151
:1039F000E02DDCCF2115310509F1281B390B2430CE
:103A0000310590F412968D919C9113976115710573
:103A100021F0FB019383828304C0909386068093F8
:103A20008506FD01329644C0FD01E20FF31F81932C
:103A30009193225031092D933C933AC020918306F3
:103A400030918406232B41F4209196013091970107
:103A50003093840620938306209194013091950140
:103A60002115310541F42DB73EB740919801509191
:103A70009901241B350BE0918306F0918406E2172F
:103A8000F307A0F42E1B3F0B2817390778F0AC0181
:103A90004E5F5F4F2417350748F04E0F5F1F50935E
:103AA0008406409383068193919302C0E0E0F0E0A6
:103AB000CF01DF91CF9108950F931F93CF93DF93A1
:103AC000009709F48CC0FC01329713821282009196
:103AD0008506109186060115110581F4208131813A
:103AE000820F931F2091830630918406281739078F
:103AF00079F5F0938406E093830671C0D80140E025
:103B000050E0AE17BF0750F412962D913C911397D9
:103B1000AD012115310509F1D901F3CF9D01DA017C
:103B20003383228360817181860F971F82179307E9
:103B300069F4EC0128813981260F371F2E5F3F4F32
:103B4000318320838A819B8193838283452B29F44F
:103B5000F0938606E093850642C01396FC93EE939D
:103B60001297ED01499159919E01240F351FE217DB
:103B7000F30771F480819181840F951F029611964D
:103B80009C938E938281938113969C938E9312972C
:103B9000E0E0F0E0D80112968D919C911397009788
:103BA00019F0F8018C01F6CF8D919C9198012E5F50
:103BB0003F4F820F931F2091830630918406281770
:103BC000390769F4309729F4109286061092850619
:103BD00002C0138212821093840600938306DF9141
:103BE000CF911F910F910895A0E0B0E0EAEFFDE1C1
:103BF0000C94B41BEC01009721F4CB010E94C71C6C
:103C0000B8C0FC01E60FF71F9C0122503109E217F2
:103C1000F30708F4ACC0D9010D911C911197061758
:103C20001707B0F00530110508F49FC0C8010497CC
:103C30008617970708F499C002501109061B170B45
:103C4000019311936D937C93CF010E945C1D8DC0F5
:103C50005B01A01AB10A4C01800E911EA09185064D
:103C6000B091860640E050E0E12CF12C109709F469
:103C70004AC0A815B905D1F56D907C9011976301E4
:103C800082E0C80ED11CCA14DB0480F1A3014A19DA
:103C90005B096A0182E0C80ED11C1296BC90129793
:103CA0001396AC91B5E0CB16D10440F0B282A38359
:103CB00051834083D9016D937C930AC00E5F1F4FDF
:103CC000C301800F911FF90191838083EB2DFA2F9F
:103CD000E114F10431F0D7011396FC93EE9312979F
:103CE00044C0F0938606E09385063FC08D919C9179
:103CF00011974817590708F4AC017D0112960D90F1
:103D0000BC91A02DB3CF8091830690918406881535
:103D10009905E1F446175707C8F4809194019091F2
:103D20009501009741F48DB79EB74091980150914D
:103D30009901841B950BE817F907C8F4F0938406E2
:103D4000E0938306F901718360830FC0CB010E9469
:103D5000C71C7C01009759F0A801BE010E94C31E38
:103D6000CE010E945C1DC70104C0CE0102C080E0EC
:103D700090E0CDB7DEB7EEE00C94D01B81E090E090
:103D8000F8940C948121FB01DC0102C001900D929A
:103D900041505040D8F70895FB01DC0101900D928D
:103DA0000020E1F70895AEE0B0E0E9EDFEE10C940B
:103DB000BE1B0D891E898F89988D26E02C831A835E
:103DC000098397FF02C080E090E801979E838D836E
:103DD000AE01455E5F4F698D7A8DCE0101960E94DE
:103DE000031F4D815E8157FD0AC02F813885421720
:103DF00053070CF49A01F801E20FF31F10822E967C
:103E0000E4E00C94DA1BACE0B0E0E9E0FFE10C94F4
:103E1000B01B7C016B018A01FC0117821682838131
:103E200081FFBDC1CE0101964C01F7019381F601DE
:103E300093FD859193FF81916F01882309F4ABC1B4
:103E4000853239F493FD859193FF81916F0185321D
:103E500029F4B70190E00E94EB20E7CF512C312CE0
:103E600020E02032A0F48B3269F030F4803259F037
:103E7000833269F420612CC08D3239F0803339F4FB
:103E8000216026C02260246023C0286021C027FD55
:103E900027C030ED380F3A3078F426FF06C0FAE03C
:103EA0005F9E300D1124532E13C08AE0389E300DD2
:103EB0001124332E20620CC08E3221F426FD6BC1FA
:103EC000206406C08C3611F4206802C0883641F4A4
:103ED000F60193FD859193FF81916F018111C1CF0F
:103EE000982F9F7D9554933028F40C5F1F4FFFE36C
:103EF000F9830DC0833631F0833771F0833509F0D3
:103F00005BC022C0F801808189830E5F1F4F44246B
:103F10004394512C540115C03801F2E06F0E711C0E
:103F2000F801A080B18026FF03C0652D70E002C0BB
:103F30006FEF7FEFC5012C870E94E0202C018301E9
:103F40002C852F77222E17C03801F2E06F0E711CDE
:103F5000F801A080B18026FF03C0652D70E002C08B
:103F60006FEF7FEFC5012C870E94D5202C012C8597
:103F70002068222E830123FC1BC0832D90E048166D
:103F80005906B0F4B70180E290E00E94EB203A9429
:103F9000F4CFF50127FC859127FE81915F01B701E0
:103FA00090E00E94EB2031103A94F1E04F1A510852
:103FB0004114510471F7E5C0843611F0893639F5A2
:103FC000F80127FF07C060817181828193810C5FB6
:103FD0001F4F08C060817181072E000C880B990B60
:103FE0000E5F1F4F2F76722E97FF09C09095809518
:103FF000709561957F4F8F4F9F4F2068722E2AE0FA
:1040000030E0A4010E942321A82EA81844C08537BF
:1040100029F42F7EB22E2AE030E025C0F22FF97F5E
:10402000BF2E8F36C1F018F4883579F0B4C08037D0
:1040300019F0883721F0AFC02F2F2061B22EB4FEC7
:104040000DC08B2D8460B82E09C024FF0AC09F2F9D
:104050009660B92E06C028E030E005C020E130E0CF
:1040600002C020E132E0F801B7FE07C06081718133
:10407000828193810C5F1F4F06C06081718180E057
:1040800090E00E5F1F4FA4010E942321A82EA818C4
:10409000FB2DFF777F2E76FE0BC0372D3E7FA514BC
:1040A00050F474FE0AC072FC08C0372D3E7E05C075
:1040B000BA2C372D03C0BA2C01C0B52C34FF0DC06B
:1040C000FE01EA0DF11D8081803311F4397E09C0B3
:1040D00032FF06C0B394B39404C0832F867809F0EE
:1040E000B39433FD13C030FF06C05A2CB31418F438
:1040F000530C5B18B32CB31468F4B70180E290E062
:104100003C870E94EB20B3943C85F5CFB31410F4A8
:104110003B1801C0312C34FF12C0B70180E390E09E
:104120003C870E94EB203C8532FF17C031FD03C065
:1041300088E790E002C088E590E0B7010CC0832FCB
:10414000867859F031FF02C08BE201C080E237FD72
:104150008DE2B70190E00E94EB20A51438F4B7017E
:1041600080E390E00E94EB205A94F7CFAA94F401E8
:10417000EA0DF11D8081B70190E00E94EB20A110B3
:10418000F5CF332009F451CEB70180E290E00E94D0
:10419000EB203A94F6CFF7018681978102C08FEF2A
:1041A0009FEF2C96E2E10C94CC1BFC010590615032
:1041B00070400110D8F7809590958E0F9F1F08953D
:1041C000FC016150704001900110D8F780959095E6
:1041D0008E0F9F1F08950F931F93CF93DF93FB01C3
:1041E000238121FD03C08FEF9FEF28C022FF16C05F
:1041F00046815781248135814217530744F4A081B9
:10420000B1819D012F5F3F4F318320838C932681A5
:1042100037812F5F3F4F3783268310C0EB01092F73
:10422000182F0084F185E02D0995892BE1F68E8108
:104230009F8101969F838E83812F902FDF91CF9155
:104240001F910F910895FA01AA27283051F12031CA
:1042500081F1E8946F936E7F6E5F7F4F8F4F9F4F1A
:10426000AF4FB1E03ED0B4E03CD0670F781F891F5C
:104270009A1FA11D680F791F8A1F911DA11D6A0F2A
:10428000711D811D911DA11D20D009F468943F91DD
:104290002AE0269F11243019305D3193DEF6CF01DC
:1042A0000895462F4770405D4193B3E00FD0C9F7A2
:1042B000F6CF462F4F70405D4A3318F0495D31FD0F
:1042C0004052419302D0A9F7EACFB4E0A695979562
:1042D000879577956795BA95C9F700976105710538
:1042E00008959B01AC010A2E069457954795379582
:1042F0002795BA95C9F7620F731F841F951FA01DDC
:10430000089510E0C9E6D0E004C0FE010E94C11C7F
:0C4310002196CA36D107C9F7F894FFCFF8
:10431C0004040E0E1F1F1F0E1818000E1010100E86
:10432C0019004B004B000500010019004B004B001D
:10433C000500010019004B004B000500010019009D
:10434C004B004B000500010019004B004B00050011
:10435C0001000500010001000100E1070C00000054
:10436C001E001F000C00E0070C001E0001001F00C7
:10437C000C00E0070C001E0001001F000C00E00701
:10438C000C001E0001001F000C00E0070C001E00BA
:10439C0001001F000C00E0070C001E0001000100D2
:1043AC000100010000008706800009000A000B00D4
:1043BC000C000D000E000F00100011001400000086
:1043CC000000FC00120794004301C500A300B700D5
:1043DC0000000000410211027102EB010902FA0116
:1043EC00EC0100000000AC011207710270025A05CA
:1043FC009801EC02CB02564D4450565F317C315F34
:10440C00564D4450560D0A00205761746572205366
:10441C00797374656D200042792041736166204781
:10442C006F6C64697300576174657220537973748F
:10443C00656D206279204173616620476F6C6469F9
:10444C007300564D4450455F003A323A007C005F91
:10445C00564D4450450053657420506172616D6532
:10446C007465723F0043414E43454C2C204F4B2CFE
:10447C00205550005365742054696D653F00536599
:10448C0074204E756D206F6620556E69743F005414
:10449C00696D65205365747570204D656E753A00B5
:1044AC00446579206E616D653A00536574204461F2
:1044BC0079204E616D653A0053657420546865200F
:1044CC004461793A0053657420546865204D6F6ED1
:1044DC0074683A005365742054686520596561729C
:1044EC003A002F005365742054686520486F75722C
:1044FC003A0053657420546865204D696E3A005338
:10450C00657420546865205365633A0053656C6587
:10451C00637420556E69743A20004E4558543D4FD3
:10452C004B2C2020202020555000506172616D656D
:10453C00746572205365747570004D656E753A2004
:10454C00556E69742000536F696C204D6F697374DC
:10455C0075726520550025004169722048756D699A
:10456C00646974792055004C696768742055004D56
:10457C00696E2054696D65204265747765656E00BF
:10458C004D6178205761746572696E670054696D6E
:10459C00652055004E756D206F6620556E69743F11
:1045AC002000536F696C204D6F69737475726500D0
:1045BC004C617374205761746572696E6720550085
:1045CC002C004169722054656D706572617475724E
:1045DC006520262048756D6964697479002C20204B
:1045EC00004C696768743A00446174652026205455
:1045FC00696D650053756E646179004D6F6E646111
:10460C00790054756573646179005765646E6573E0
:10461C0064617900546875727364617900467269DB
:10462C006461790053617475726461790028756EE8
:10463C006B6E6F776E2064617929002573202530AD
:10464C0032642D253032642D2530346420253032EF
:10465C00643A253032643A25303264006E616E0063
:08466C00696E66006F766600BE
:107800000C94343C0C94513C0C94513C0C94513CE1
:107810000C94513C0C94513C0C94513C0C94513CB4
:107820000C94513C0C94513C0C94513C0C94513CA4
:107830000C94513C0C94513C0C94513C0C94513C94
:107840000C94513C0C94513C0C94513C0C94513C84
:107850000C94513C0C94513C0C94513C0C94513C74
:107860000C94513C0C94513C11241FBECFEFD8E036
:10787000DEBFCDBF11E0A0E0B1E0ECE9FFE702C060
:1078800005900D92A230B107D9F712E0A2E0B1E065
:1078900001C01D92AD30B107E1F70E942D3D0C945F
:1078A000CC3F0C94003C982F959595959595959582
:1078B000905D8F708A307CF0282F295A8091C0000B
:1078C00085FFFCCF9093C6008091C00085FFFCCF60
:1078D0002093C6000895282F205DF0CF982F809127
:1078E000C00085FFFCCF9093C6000895EF92FF92F1
:1078F0000F931F93EE24FF2487018091C00087FD22
:1079000017C00894E11CF11C011D111D81E4E8164B
:1079100082E4F8068FE0080780E0180770F3E09132
:107920000401F091050109958091C00087FFE9CF1E
:107930008091C6001F910F91FF90EF9008950E94D3
:10794000763C982F8091C00085FFFCCF9093C600B5
:1079500091362CF490330CF09053892F089597555D
:10796000892F08951F930E949F3C182F0E949F3CCF
:107970001295107F810F1F9108951F93182F882350
:1079800021F00E94763C1150E1F71F9108951F935A
:10799000182F0E94763C803249F0809103018F5F5E
:1079A000809303018530C1F01F9108958091C0003C
:1079B00085FFFCCF84E18093C6008091C00085FFE5
:1079C000FCCF1093C6008091C00085FFFCCF80E102
:1079D0008093C6001F910895E0910401F091050184
:1079E00009951F9108950E94763C803241F0809164
:1079F00003018F5F80930301853081F008958091AA
:107A0000C00085FFFCCF84E18093C6008091C00058
:107A100085FFFCCF80E18093C6000895E0910401CA
:107A2000F09105010995089540E951E08823A1F0FE
:107A30002D9A28EE33E0FA013197F1F721503040CA
:107A4000D1F72D9828EE33E0FA013197F1F7215064
:107A50003040D1F7815061F708953F924F925F9285
:107A60006F927F928F929F92AF92BF92CF92DF924E
:107A7000EF92FF920F931F93CF93DF93000080E16B
:107A80008093C4001092C50088E18093C10086E015
:107A90008093C2005098589A259A81E00E94143D24
:107AA00024E1F22E9EE1E92E85E9D82E0FE0C02ECA
:107AB00010E1B12EAA24A394B1E49B2EA6E58A2E50
:107AC000F2E57F2EE0E26E2E79E4572E63E5462E36
:107AD00050E5352E0E94763C8033B1F18133B9F107
:107AE000803409F46FC0813409F476C0823409F41B
:107AF00085C0853409F488C0803531F1823521F1A3
:107B0000813511F1853509F485C0863509F48DC0BC
:107B1000843609F496C0843709F403C1853709F423
:107B200072C1863709F466C0809103018F5F80932C
:107B30000301853079F6E0910401F0910501099582
:107B40000E94763C803351F60E94F33CC3CF0E94E2
:107B5000763C803249F78091C00085FFFCCFF092DF
:107B6000C6008091C00085FFFCCF9092C600809136
:107B7000C00085FFFCCF8092C6008091C00085FFC9
:107B8000FCCF7092C6008091C00085FFFCCF609250
:107B9000C6008091C00085FFFCCF5092C600809146
:107BA000C00085FFFCCF4092C6008091C00085FFD9
:107BB000FCCF3092C6008091C00085FFFCCFB09210
:107BC000C60088CF0E94763C863808F4BDCF0E945C
:107BD000763C0E94F33C7ECF0E94763C803809F4CC
:107BE0009CC0813809F40BC1823809F43CC1883942
:107BF00009F48FC080E00E94C73C6CCF84E10E94F2
:107C0000BD3C0E94F33C66CF85E00E94BD3C0E94D3
:107C1000F33C60CF0E94763C809306010E94763C44
:107C2000809307010E94F33C55CF0E94763C80333D
:107C300009F41DC183E00E94BD3C80E00E94C73C66
:107C400049CF0E94763C809309020E94763C809343
:107C5000080280910C028E7F80930C020E94763C79
:107C6000853409F415C18091080290910902892B8D
:107C700089F000E010E00E94763CF801E85FFE4FDA
:107C800080830F5F1F4F80910802909109020817AF
:107C9000190788F30E94763C803209F045CF809125
:107CA0000C0280FF01C16091060170910701660F0F
:107CB000771F7093070160930601A0910802B091AD
:107CC00009021097C9F0E8E0F1E09B01AD014E0F09
:107CD0005F1FF999FECF32BD21BD819180BDFA9A17
:107CE000F99A2F5F3F4FE417F50799F76A0F7B1F4B
:107CF00070930701609306018091C00085FFFCCF5F
:107D0000F092C6008091C00085FFFCCFB092C60003
:107D1000E1CE83E00E94C73CDDCE82E00E94C73CFA
:107D2000D9CE0E94763C809309020E94763C8093D3
:107D300008028091060190910701880F991F909386
:107D40000701809306010E94763C853409F4A6C0A1
:107D500080910C028E7F80930C020E94763C8032D0
:107D600009F0B8CE8091C00085FFFCCFF092C6002C
:107D7000609108027091090261157105B9F140E046
:107D800050E080910C02A82FA170B82FB27011C0E2
:107D9000BB2309F45CC0E0910601F0910701319624
:107DA000F0930701E09306014F5F5F4F46175707B7
:107DB000E8F4AA2369F3F999FECF209106013091E6
:107DC000070132BD21BDF89A90B58091C00085FFB2
:107DD000FCCF9093C6002F5F3F4F30930701209355
:107DE00006014F5F5F4F4617570718F38091C00099
:107DF00085FDE5CE8091C00085FFF8CFE0CE81E023
:107E00000E94C73C67CE0E94763C803209F08CCE3F
:107E10008091C00085FFFCCFF092C6008091C00029
:107E200085FFFCCFE092C6008091C00085FFFCCFAB
:107E3000D092C6008091C00085FFFCCFC092C600E2
:107E40008091C00085FFFCCFB092C60043CEE09188
:107E50000601F091070194918091C00085FFFCCF4D
:107E60009093C6009CCF80E10E94C73C33CE0E9415
:107E7000763C0E94763C182F0E94763C112309F430
:107E800083C0113009F484C08FE00E94C73C22CE29
:107E900080910C02816080930C02E5CE80910C02EF
:107EA000816080930C0259CF809107018823880F4D
:107EB000880B8A2180930B02809106019091070123
:107EC000880F991F90930701809306018091080203
:107ED00080FF09C080910802909109020196909359
:107EE000090280930802F894F999FECF1127E091D6
:107EF0000601F0910701C8E0D1E08091080290915D
:107F00000902103091F40091570001700130D9F34B
:107F100003E000935700E89500915700017001308D
:107F2000D9F301E100935700E89509901990009169
:107F3000570001700130D9F301E000935700E89534
:107F40001395103498F011270091570001700130FB
:107F5000D9F305E000935700E895009157000170B0
:107F60000130D9F301E100935700E895329602976A
:107F700009F0C7CF103011F00296E5CF112480919F
:107F8000C00085FFB9CEBCCE8EE10E94C73CA2CD19
:0C7F900085E90E94C73C9ECDF894FFCF0D
:027F9C00800063
:040000030000780081
:00000001FF